:10000000F8690300926051784245524C494E020013
:100010000439393136520000000080028106980010
:10002000000100000000000000000100080000FFC7
:10003000FFFFFF00030020000000C00100000200DD
:1000400030000000100000000200800100004000AD
:1000500000000200800100006002000002001000A9
:100060000000000000000000000000000000000090
:100070000000000000000000000000000000000080
:100080000000000000000000000000000000000070
:100090000000000000000000000000000000000060
:1000A0000000000000000000000000000000000050
:1000B0000000000000000000000000000000000040
:1000C0000000000000000000000000000000000030
:1000D0000000000000000000000000000000000020
:1000E0000000000000000000000000000000000010
:1000F0000000000000000000000000000000000000
:1001000000000000000000000000000000000000EF
:1001100000000000000000000000000000000000DF
:1001200000000000000000000000000000000000CF
:1001300000000000000000000000000000000000BF
:1001400000000000000000000000000000000000AF
:10015000000000000000000000000000000000009F
:10016000000000000000000000000000000000008F
:10017000000000000000000000000000000000007F
:10018000000000000000000000000000000000006F
:10019000000000000000000000000000000000005F
:1001A000000000000000000000000000000000004F
:1001B000000000000000000000000000000000003F
:1001C000000000000000000000000000000000002F
:1001D000000000000000000000000000000000001F
:1001E000000000000000000000000000000000000F
:1001F00000000000000000000000000000000000FF
:100200006F0000106F00C00F6F00800F6F00400F75
:100210006F00000F6F00C00E6F00800E6F00400E69
:100220006F00000E6F00C00D6F00800D6F00400D5D
:100230006F00000D6F00C00C6F00800C6F00400C51
:100240006F00000C6F00C00B6F00800B6F00400B45
:100250006F00000B6F00C00A6F00800A6F00400A39
:100260006F00000A6F00C0096F0080096F0040092D
:100270006F0000096F00C0086F0080086F00400821
:100280006F0000016F00A0116F0060116F0020115E
:100290007310003097D1FEFF9381C1F617D6FEFF91
:1002A0001306C68497C6FEFF9386C67C1707000018
:1002B000130747698322070023A056009106110700
:1002C000E3CAC6FE9702FFFF9382C2B51713FFFF72
:1002D000130383D563D7620023A002009102E3CD0C
:1002E00062FE1701FFFF1301E1B3130500202A91FD
:1002F00041111305000093050000EF00C05601A056
:100300005D7106C016C41AC61EC82ACA2ECC32CECB
:1003100036D03AD23ED442D646D872DA76DC7ADE8D
:10032000FEC0F322003096C2F322103496C4F322AA
:10033000203493F2F20F96C68A0217C3FEFF13030E
:100340006373169303230300214573200530029342
:100350001645136505087310053036458542B3927E
:10036000A200396323265388A64273901234824038
:10037000A2423243C243E245724682561257A25706
:100380003258C258525EE25E725F864F52456161DA
:10039000730020307D15E31FA0FE6780000075719B
:1003A00006C00EC412C616C81ACA1ECC22CE26D04B
:1003B0002AD22ED432D636D83ADA3EDC42DEC6C055
:1003C000CAC2CEC4D2C6D6C8DACADECCE2CEE6D025
:1003D000EAD2EED4F2D6F6D8FADAFEDCF322003016
:1003E00096DEF322103416C1F322203416C34111D5
:1003F0006F00400C41018A4273901234F6527390A0
:1004000002308240A2413242C2425243E24372442D
:1004100082540255A2553256C2565257E25772586C
:1004200086481649A649364AC64A564BE64B764C8C
:10043000865C165DA65D365EC65E565FE65F73003F
:1004400020304961000000000000000000000000B2
:100450000000397101436EC619A0397141536AC851
:1004600066CA62CC5ECE19A0397101535AD056D2F9
:1004700052D44ED64AD826DA22DC06DE3301614059
:10048000828241114AC026C222C406C68282B24D6F
:100490004101024D924C224CB24B4101024B924A17
:1004A000224AB2494101024992442244B2404101E8
:1004B0008280828001A0CD67A3800762CD67238000
:1004C00007628280EFF2FFFB49649307200223005A
:1004D000F440F167835655008325750083A7078E86
:1004E00049661306064109458297B9572300F4402F
:1004F0005DBFEFF21FF6930720024D6A8359550046
:1005000049642300F44083471A621389C9FF4111EB
:10051000AA8433590910130A1A6289E78547230010
:10052000FA00F126CD679387076203C7070019EF2A
:1005300083A67400796763FBE60005472380E70024
:10054000F16783A7478D814505458297F16783A7AA
:10055000C78AC96A935B1900138C0A41DE8513852B
:100560000A41B30C8901829703AD0C009307300355
:10057000631FAD081377F90F93070010998F9389C4
:10058000B90F716BB3D70710B3B909CE8D4A930D6C
:100590004B8D3AC43EC6B3D9091083A70D0083A57D
:1005A000740005458297A24781CB8327CB893246C9
:1005B0009305F00F668582978327CB8D83A5740002
:1005C000496713060741CE860145829783270B8E24
:1005D00083A574004D6713064762CA863AC2014577
:1005E00082971247E2858147130747628146014699
:1005F0006392FB0215CA6319DD0283A7740081C7E9
:1006000079676395E70023000A00AD24B9572300FA
:10061000F44025A00B5627000BD525006301A60248
:10062000930750052300F44093075005FD1A23005B
:10063000F44093FAFA0FE3920AF6410189BD850767
:10064000B296B3D70710054665B7EFF29FE3716422
:100650008327048E117185460A86B7F50300094584
:100660008297034701009307A0046315F706034729
:1006700011009307A005631FF7048327848A83541E
:10068000E101F9450A8582976396A404B56713874B
:10069000474014430346B100B32606C414C383463F
:1006A000B1001043918233A646C610C30347C10070
:1006B00093868740333737F898C20347F100938613
:1006C00007419387C740333767F298C20347D10089
:1006D0002380E7001161C1BBEFF2BFDAF3270030DE
:1006E000B3B737C073900730B96713870780B71661
:1006F000D00014C313874780B706732014C3138731
:100700000781DD4614C39387C78123A00700B5671F
:100710001387074123200700138707041443938797
:1007200087417164B32600C014C398438546814550
:1007300033A706C098C3832744C005458297832703
:1007400084C08297832744C10D4582971D65130598
:1007500005538931DD3D81BBEFF2BFD21920A13BAA
:1007600099B3C9679387074045472380E700A38073
:10077000E700238107008280EFF2BFD049641304B1
:10078000044083472400014593F7F70FB1C3930753
:100790002002A300F40083442400F16783A7878A22
:1007A0008374945083452400130924004A85F91565
:1007B000B3D505108297639EA400834724000545A6
:1007C000F917A357090023010400B957A300F40047
:1007D000D9B993074004A300F4000145D5BFEFF257
:1007E0005FCA593F05C149659307054083C7370074
:1007F0001307A00A93F7F70F6387E7001307B00BFF
:100800006387E7004DB1130505406D39E5BF13055A
:100810000540C531C5BFEFF2DFC68D671384418146
:10082000938707732315F40095671387F7959387CC
:1008300037052317F40093070030231AF4009307B9
:1008400000F0231BF4002316E400231804002319EE
:100850000400F16783A7878AE94513854181829760
:10086000231DA40089B1EFF2DFC1BD35F535653731
:10087000BD37FDBFEFF2FFC0F16483A7848F411144
:100880009384048C82979C402A89054582979C40DA
:100890002A8401458297A167938717516317F9044A
:1008A000B31775CE91EBB33714FC99E793778502B4
:1008B00013078002638BE702F16483A7C48C2AC606
:1008C0001374E40B82973245334414C083A7448CDD
:1008D0001375B5032204418D13658502829783A7A2
:1008E000848C829783A7048D829741016DBEEFF2BD
:1008F000BFB771648327848F1309048C8297832781
:100900000900AA890545829783270900AA84014521
:100910008297A167938717516393F9028327C48C49
:1009200082978327448C33C514C01375F50F2205B5
:1009300082978327848C82978327048D8297B9BE00
:10094000B23A0200B23A0200B23A0200B23A0200EF
:10095000B23A0200B23A0200B23A0200B23A0200DF
:10096000B23A0200B23A0200B23A0200B23A0200CF
:10097000B23A0200B23A0200B23A0200B23A0200BF
:10098000B23A0200B23A0200B23A0200B23A0200AF
:10099000B23A0200B23A0200B23A0200B23A02009F
:1009A000B23A0200B23A0200B23A0200B23A02008F
:1009B000B23A0200B23A020010000000000000004B
:1009C000017A5200017C05011B0D02004800000065
:1009D000180000007EFAFFFF3000000000420E40C9
:1009E000449B0D42DB420E40449A0C42990B4298C4
:1009F0000A42970942D7D8D9DADB420E99745D01D1
:100A00006F0000146F00C0136F0080136F0040135D
:100A10006F0000136F00C0126F0080126F00401251
:100A20006F0000126F00C0116F0080116F00401145
:100A30006F0000116F00C0106F0080106F00401039
:100A40006F0000106F00C00F6F00800F6F00400F2D
:100A50006F00000F6F00C00E6F00800E6F00400E21
:100A60006F00000E6F00C00D6F00800D6F00400D15
:100A70006F00000D6F00C00C6F00800C6F00400C09
:100A80006F0000016F00A0156F0060156F0020154A
:100A90007310003097D1FEFF9381C1F61736FFFF28
:100AA0001306C66A9736FFFF9386466A172700002B
:100AB0001307079F8322070023A056009106110702
:100AC000E3CAC6FE9732FFFF9382426E1733FFFFE1
:100AD0001303436F63D7620023A002009102E3CDAA
:100AE00062FE1731FFFF13016126130500402A91B2
:100AF00041119732FFFF9382622513030040B383B5
:100B00006200376EA55A130E5EAA63D7720023A047
:100B1000C2019102E3CD72FE37E5000013050583A3
:100B200097050000938505EE0CC1130500009305A1
:100B30000000EF00405F01A0000000000000000086
:100B40005D7106C016C41AC61EC82ACA2ECC32CE83
:100B500036D03AD23ED442D646D872DA76DC7ADE45
:100B6000FEC0F322003096C2F322103496C4F32262
:100B7000203493F2F20F96C68A021733FFFF130355
:100B8000E35C169303230300214573200530029391
:100B90001645136505087310053036458542B39236
:100BA000A200396323265388A642739012348240F0
:100BB000A2423243C243E245724682561257A257BE
:100BC0003258C258525EE25E725F864F5245616192
:100BD000730020307D15E31FA0FE67800000757153
:100BE00006C00EC412C616C81ACA1ECC22CE26D003
:100BF0002AD22ED432D636D83ADA3EDC42DEC6C00D
:100C0000CAC2CEC4D2C6D6C8DACADECCE2CEE6D0DC
:100C1000EAD2EED4F2D6F6D8FADAFEDCF3220030CD
:100C200096DEF322103416C1F322203416C341118C
:100C30006F00400641018A4273901234F65273905D
:100C400002308240A2413242C2425243E2437244E5
:100C500082540255A2553256C2565257E257725824
:100C600086481649A649364AC64A564BE64B764C44
:100C7000865C165DA65D365EC65E565FE65F7300F7
:100C8000203049618280DD678A05938787F4A3E578
:100C9000A700828001A00111B16706CE22CC26CA2E
:100CA00093870778984305448944332704C098C341
:100CB000EF10E023B7177A00938707203EC2FD4765
:100CC0002304F100A1478145A305F10048009147A5
:100CD0002306F100A304910023050100EF10C06872
:100CE000EF10000EEF10E00B49661307803E9306ED
:100CF00040291306064081450545EF10C048B75707
:100D0000E80193870780814548003EC2EF10C06527
:100D1000C96513860540130746021C4313050625C3
:100D20001308F03FB327C0C01CC31C43A948B32716
:100D300030C31CC31C43B32704C01CC31C43B327CC
:100D400060C11CC31C43B32750C01CC31C43B32742
:100D500034C01CC31C43B32724C01CC31C43B3278B
:100D600010C01CC39307C61F9443B32674C094C31A
:100D70001C41B32708D41CC1930746259443B326CE
:100D800008D494C3944313080020B326D8D494C342
:100D90009306061A9C42B32774C09CC29307461A56
:100DA00003A807003328B4C023A0070103280700C5
:100DB000332814C0232007011307C60203280700A5
:100DC00033A888C6232007011307860203280700DB
:100DD000A14833A8C8C7232007011307061B03280F
:100DE0000700332800E623200701A309061A13078A
:100DF000461B2320070013070621232007001307A3
:100E00004621232007001307C621232007001307CC
:100E10000623232007001307862323200700130738
:100E20004623232007001841130800053327B8D2B2
:100E300018C11307C6240843130840063325B8D247
:100E400008C31307861B0843332500E608C3A30D18
:100E5000061A1307C61B2320070098433705100006
:100E60007D153327B0C198C31307861A03280700DE
:100E7000332805E6232007017D55A305A61A7D57D3
:100E80001305C61A18C18843332580C188C3884317
:100E90003325E0C188C388433325F0C188C31305D7
:100EA000061C18C11305461C2300E50098430D4598
:100EB000332774C098C39843332750C098C39843CE
:100EC0003327A0C098C39843332785C298C398435B
:100ED000332760C098C39843332730C098C39843E2
:100EE000332740C098C39843332700C098C3984322
:100EF000332710C098C39843332720C098C3984322
:100F00003327C0C098C39842332770C098C21307D4
:100F1000C61903280700332884C0232007011307BC
:100F2000C62603280700332804C02320070103280E
:100F30000700332810C023200701032807003328A7
:100F400020DC232007011307062703280700332886
:100F500004C02320070103280700332810C02320E2
:100F6000070103280700332824C023200701032892
:100F70000700332830C22320070103280700332845
:100F800050D4232007011307862223000700238162
:100F900007001C43B32724CB1CC39307C6229843E6
:100FA000332740C198C39843332750C198C39C420C
:100FB00013070622B32735C29CC21C43130506192A
:100FC000B32700D81CC3930706269443B32600C05A
:100FD00094C3930746229443B326D4C194C383A6F3
:100FE0000540B32614C023A0D54083A60540B326F0
:100FF00030C023A0D5401443B326D4C414C30C413D
:10100000C166938606F00567F58D130807A0639DFA
:1010100005075D67230487FA13074603230087004B
:101020003707A02F1307F71398C3B777550D93878A
:101030003750130706161CC39307461698430544FA
:10104000AD463327D4C098C398438145054533A79F
:1010500086C798C39307060F23A007001307803E97
:1010600093064029EF009078B9679387878098436B
:10107000332780C098C39843332784C098C3F24075
:101080006244D244056182800C4113070790ED8EC3
:10109000E39DE6F85D67230407FA13074603230080
:1010A00097003707A02F13070719BDBF41114165EE
:1010B00022C406C613044501930700032305F40068
:1010C00093075003A305F4009307F0052306F400EB
:1010D0009307F004A306F400930730052307F400F8
:1010E00093074005A307F4009147A30AF400FD57B6
:1010F000A30BF40023080400A30804002309040040
:10110000A3090400230A0400230B0400F16783A74A
:10111000878AE945130545018297231DA400B24043
:10112000224441018280411106C622C4F3270030C7
:10113000B3B737C073900730396493074480795749
:1011400098C398438546014533A796C098C3B567B1
:10115000938707049843332700C098C3EF00505E7D
:10116000FD571307C4881CC31307C48C1CC3130486
:101170000489232004001D3F3920313EEF005042F6
:10118000EF00703101A0D565ED679385A5D7138772
:10119000077823A00500938717780346070083C6C6
:1011A00007001376F60F93F6F60F93871600B387B2
:1011B000D70213071600B307C74213D71700B38728
:1011C000C600B307D642BA9713079006B387E70263
:1011D00013074006B3D7E7029CC18280411122C4A5
:1011E00006C623160502F16783A7878A9305E002E6
:1011F0002A8482972316A402B240224441018280AD
:10120000411122C406C6231A0504F16783A7878A01
:10121000930560052A848297231AA404B2402244CD
:1012200041018280411122C406C623160502F167DE
:1012300083A7878A9305E0022A8482972316A40253
:10124000B240224441018280411122C44964130406
:10125000044006C61306841B1C421307803EA146A9
:10126000B32700E61CC2A30106009307C41B23A0FA
:1012700007009305801B0545EF005057B777550DC4
:1012800013060416938737501CC22244B24013073A
:10129000803E914693050016054541016F001055AB
:1012A000011122CC2AC606CE4537496613060640F0
:1012B0001304461A1840854733A7A7C118C0184021
:1012C0003327C0C118C018403327D0C118C01840F8
:1012D00033A747C018C0184033A737C018C03245DD
:1012E000184021CD33A7D7C118C01C40B32740C038
:1012F0001CC0B777D50D13060616938737501CC24E
:101300001C4205479146B32767C11CC21C42930586
:1013100000160545B32777C11CC21307803EEF00B6
:10132000F04C22866244F2401307803E91469305BA
:10133000401A054505616F00704B33A7C7C118C03F
:101340001C40B32730C06DB7011122CC26CA2AC673
:1013500006CE2E84D53D3245C967938707409384D6
:10136000871B51C1130484FD1374F40F4D47636947
:1013700087009840854533948500332704E698C05C
:101380001386471A184213840716B777550D33276B
:10139000A0C118C218429387375091463327C0C165
:1013A00018C218429305401A05453327D0C118C208
:1013B0001CC01307803EEF00704322861307803E57
:1013C0009146930500160545EF0050426244F240F5
:1013D0002686D2441307803EA1469305801B05450F
:1013E00005616F00B0407D476369870085451387BD
:1013F000C71B3394850000C361B713077002E36114
:1014000087F88545339485001374F40FA381840015
:1014100085BFC967938707401386071B18429387C8
:10142000471B332700E618C2A301060023A00700CC
:101430001DC5938585FD93F5F50FCD4763E9B7008D
:101440008547B395B7001C42B3A705E61CC2130736
:10145000803EA1469305001B05456F0030397D474E
:101460006367B7000547B315B7008CC3CDB7854791
:10147000B395B70093F5F50FA301B600C9BF4111AD
:1014800022C426C25564C9649384046006C69307C7
:10149000C4D723A007001307803E8D4791462686B8
:1014A0009305002005459CC0EF005034C147130749
:1014B000803E914626869305002005459CC0EF009E
:1014C000F032DD6783C787FA130404D80965ADC716
:1014D000130505A4EFF00FF0232004001C401307B0
:1014E000803EB3B717FCA9C361669306005013068C
:1014F000064091650545EF0010496567D56793067D
:1015000007809387C7D7130707908C430B96460035
:101510002E9690C3E39BE6FE8843B2402244924459
:10152000330565DE4101828091462286930580273E
:101530000545EF0050455DB713050508EFF08FE94D
:10154000232004001C401307803EB3B717FC95CB43
:101550006166930640641306064091650545EF00F9
:1015600090426567D567930607949387C7D713079B
:1015700007A48C430B9646002E9690C3E39BE6FE91
:1015800061BF91462286930580270545EF00B03F55
:1015900055BF411106C622C426C2AA847533C5357B
:1015A0002A842685F53913050002EFF0AFE2693988
:1015B000F935635D85003305A440B24022443345CC
:1015C000051092443355051041018280018DF5B715
:1015D000C967938707401386071C7D5718C29387F6
:1015E000471C2380E70029C5938585FD93F5F50FFA
:1015F0004D47636CB7003D476361B7028605854779
:10160000B395B70093C5F5FF0CC21307803EA14602
:101610009305001C05456F00701D86050547B31531
:10162000B70093C5F5FF93F5F50F2380B700F1BF21
:101630007D47E376B7FC13077002E371B7FEF1B79D
:10164000797122D44AD04ECE06D626D252CC56CA72
:101650005AC85EC662C42A89AE89014409C513040A
:1016600016001374F40FF16783A7C789CD641306BE
:10167000800281454E85138A0441938B24408297D2
:10168000CD4A130BF00F5D6C938484409377F40F75
:1016900063FEFA00B250225492540259F249624A4F
:1016A000D24A424BB24B224C45618280037744417F
:1016B000B30744016309670383C507000545D13DAE
:1016C00093171400A3D7A90083D70B0063FDA700CD
:1016D0008547A304FCFA83C7040063080900B3C765
:1016E00007C02380F400050455B7B3C727C0D5BF92
:1016F000397152D44D6A22DC26DA56D25ECE62CCE3
:1017000006DE4AD84ED65AD093049A40238004006D
:10171000A96A930B0A410D3E01445D6C130AEA4429
:10172000938A3A64837674411307F00F1376F40FAB
:10173000B30774016385E60693099CFA23800900C8
:1017400003CB0700054532C6137BFB0FDA85D13189
:10175000DA850545B53DDA850545253D83C7040095
:101760001307E00252893309F742B3075401860791
:101770002311A900231069012390A7003246930585
:1017800049000545753D4A85913C83C7090081CBD9
:1017900083C70400850793F7F70F2380F40005043F
:1017A000D147E311F4F8F2506254D2544259B2597D
:1017B000225A925A025BF24B624C216182805D7127
:1017C0004EDEA2C4CAC052DC56DA5ED686C6A6C2B7
:1017D0005AD862D466D26AD06ECEBD34CD679389B2
:1017E000A740238009009387B7404D69A96A2380E9
:1017F00007000144130A4942DD6B938A7A658376B8
:1018000044411307F00F137CF40FB3074401130B8B
:101810001400638CE60CA3840BFA83C40700014513
:10182000930C697E93F4F40FA685E536A6850145F1
:101830004533A6850145B13B83C709001307600501
:10184000B3D40410B30CF742569406049307B9407E
:101850001307E002130600058145138D9BFA930DD3
:10186000894023909C002391AC002310A40083C7DF
:1018700007005164130464553304F742F1672310E1
:1018800094002311A40083A7C78913854C00DA8430
:101890008297130770029306F00F1306294005483C
:1018A00093F7F40F6377F7066685993A83470D003F
:1018B00081CB83C70900850793F7F70F2380F900D1
:1018C000628693054400014523000D00953B228567
:1018D000913A83470D0091CB1307B9408347070026
:1018E000850793F7F70F2300F700930780025A84C8
:1018F000E317FBF0B640264496440649F259625A73
:10190000D25A425BB25B225C925C025DF24D616135
:10191000828083F54441B3874401638FD50283C538
:101920000700014532C236C43AC642C09D31939782
:101930001400E6972392A7001246A2463247835727
:101940000600024863FAA70023000D0183C70D00BB
:10195000B3C717C02380FD00850499B7B307B5400E
:10196000B3D707106357B5003305F0403355051062
:10197000828033C5F7C08280011106CE22CC26CAF0
:101980004D644AC84EC656C25AC052C4EFF0DF8BEF
:101990009307C44023800700F16783A7C789556573
:1019A0004969130680028145130505D013090940D2
:1019B000CD64A16A8297130404419309091B138B18
:1019C0004440FD1A834704001307F00F6307F7082C
:1019D000034A04000545137AFA0FD2851D3CD285CF
:1019E0000545FD36693C83A709001307803EA146E3
:1019F000B32700E623A0F900A38109009307491B40
:101A000023A007004E869305001B2A8A0545F92B63
:101A1000BD34AA855285993703570B00B37755011A
:101A2000B3D707106373F702138784408347070017
:101A3000B3C737C02300F7001387C44083470700AC
:101A4000850793F7F70F2300F700B777FF7F93879A
:101A50000727A29786072390A7000504938744428F
:101A6000E312F4F6F2406244D2444249B249224AB7
:101A7000924A024B05618280011106CE22CC26CA11
:101A80004D644AC84EC656C25AC052C4EFF0CFFB8E
:101A90009307D44023800700F16783A7C789556562
:101AA0004969130600058145130585D213090940CC
:101AB000CD64A16A8297130444429309091B138BD6
:101AC0004440FD1A834704001307F00F6308F7082A
:101AD000034A04000145137AFA0FD285EFF07F9391
:101AE000D2850145F534613A83A709001307803E8A
:101AF000A146B32700E623A0F900A38109009307BC
:101B0000491B23A007004E869305001B2A8A054522
:101B1000F129B532AA855285913503570B00B37769
:101B20005501B3D707106373F702138784408347C7
:101B30000700B3C737C02300F7001387D44083479B
:101B40000700850793F7F70F2300F700B777FF7FAC
:101B500093870727A29786072390A70005049387FA
:101B6000C444E311F4F6F2406244D2444249B2491B
:101B7000224A924A024B0561828001114D6506CED0
:101B80004AC84EC652C422CC26CA5564130AE54040
:101B900023100A009309E4CF130984D7F16423903A
:101BA00009009384848A231009009C4099451305F9
:101BB000854082972310AA009C40130564C89305B2
:101BC000800782972390A9009C40130504D09305B9
:101BD000800782972310A9009C40930580075565D4
:101BE0008297130464072310A400F2406244D24495
:101BF0004249B249224A05618280411122C406C687
:101C0000F16783A7C7894D641306C0039305F00FDE
:101C10001305044182976D67ED6713076779930594
:101C20007002130444421386E77B8346070063E691
:101C3000D50083460700A346D4000507E317C7FE77
:101C40004D66ED6693872778CD451306064193864A
:101C5000667903C7070063ECE50003C70700137745
:101C6000F70F63E6E500130587022346A700850703
:101C7000E391D7FEF16783A7878A4D64130504417A
:101C80009305C00382971304C4442310A400B240F8
:101C9000224441018280CD6701111387074006CE9F
:101CA00022CC26CA4AC84EC6231007009306400617
:101CB000138727402310D70013874740930600025D
:101CC0002310D7005D67034787FA9387674071C782
:101CD000130700202390E7000D37C164938404406C
:101CE0009307A0FA2380F4001307A00A83C7040017
:101CF000E30EF7FE4D64930794402380070093079B
:101D0000A440238007009307B44023800700930773
:101D1000C440238007009307D440238007007169E3
:101D2000930784401309C98923800700832709008A
:101D3000D569138569C81306800781458297832773
:101D40000900138509D013068007814582978327F0
:101D500009001306800781455565130404408297E6
:101D6000231004007132A13C0139A1472310F40073
:101D70002133930700082310F400013593078008EE
:101D80002310F400930760062380F400F2406244BD
:101D9000D2444249B249056182801307002A1DBF1F
:101DA00082804966B70758011306064C938727E0DF
:101DB0001CC21307803E91469305000C05453DA4C7
:101DC000411122C4496406C61304444C930730CE23
:101DD0001CC022861307803E91469305400C0545A2
:101DE0003124FD571CC022862244B2401307803E96
:101DF00091469305400C05454101CDAA4111B167BB
:101E000006C69387C74098432945332730C098C3F7
:101E1000FD28B967938707809843332700C098C38C
:101E2000B2404101828073270030218B19C7F3270C
:101E30000030B3B737C073900730B9669386068811
:101E4000904285473395A700518D88C219C7F32763
:101E50000030B3C737C073900730828073270030DB
:101E6000218B19C7F3270030B3B737C07390073001
:101E7000B96693860688904285473395A700134537
:101E8000F5FF718D88C219C7F3270030B3C737C07B
:101E90007390073082803967130707801C4308431B
:101EA000331585C611E1054513F7270001EFB3B7D8
:101EB00017FC91E7B727A10733D5A7028280B79710
:101EC000D003DDBF2165130505D0828031679307FC
:101ED00007789443130787787D15B32600C094C311
:101EE00008C39843854633A706C098C38280411132
:101EF00006C62937B96793874780984385461305F7
:101F0000000833A786C098C3B2404101C1B7B1678A
:101F100093874778944341667D16B3D506103E8774
:101F2000F18E1C4333D80710F18F6377B800B29756
:101F3000958FE3E8A7FE8280958FE3C4A7FE828099
:101F4000B16793870750AA979843332700C098C377
:101F500009E9B967938747809843332790C098C3AE
:101F60008280930700086319F500B967938747805B
:101F700098433327A0C0E5B793070010E312F5FE9E
:101F8000B9679387478098433327B0C0C9BF396783
:101F9000930707939443DD679387C7FAB3B616FC9C
:101FA00001459DCE1307C7941843331717C011CBB3
:101FB00003C7C7001377F70F632537000947238648
:101FC000E70083C6670039671306C79293F6E60FEA
:101FD00014C21307C79414430545B32610C014C395
:101FE000984B01C703A307010283828095679387FB
:101FF000F73F63EEB7168982638B0616DD6793871A
:10200000C7FA83C7D70093F7F70F63860716B96738
:1020100013884780832808000543B32883C1232001
:1020200018011388C78083280800B32803C0232021
:1020300018011388879203280800333818FC6310AE
:10204000081441119387879006C622C426C24AC04D
:1020500023A00700B14737080D0063E5D7001388B8
:1020600016004208B9679388879123A00801138856
:10207000479F032808009318180063D808001388A6
:10208000F6FF9387479023A00701B967138807914C
:102090002320A8001385C794032805003D43054E5F
:1020A000332810C0232005011388079083280800D7
:1020B0000545B328A5C22320180113888790232043
:1020C000A800138507961308400F232005010CC1B3
:1020D000014893850792B3880641636DD804396936
:1020E000BA8401441309099283270900BDE73969BD
:1020F0001309899283270900B3B717FC99C3636456
:102100009406B9671387478014439387C7800145B6
:10211000B32680C114C39843332700C098C36365B6
:102120009400370517301905B24022449244024901
:10213000410182809C41B307F340B3F7C705FD1707
:10214000B3D7F804D9DB81488B2E460085082320BD
:10215000D501E3EBF8FE3E98BDBFE30A94F80545D0
:102160007D33050451B705455D33050461B7370577
:10217000173005058280370517300D058280370539
:1021800017301105828095679387F73F63ECB71688
:102190008982638906165D681308C8FA8347D800E8
:1021A00093F7F70F63840716B9679388478003A3F3
:1021B0000800054E33238EC123A068009388C78092
:1021C00003A3080033230EC023A0680093888792DE
:1021D00083A80800B3B818FC639E0812411106C614
:1021E00022C426C24AC09388879023A008009388FF
:1021F000079123A0A8001385C79483280500B3285E
:1022000000C023201501034568009388C792938777
:1022100007901375E50F23A0A80003455800137518
:10222000F50F35E588430D483325A8C288C3B96743
:102230001385879137080200232005010328050034
:102240000144332800C7232005011385F6FF1388B6
:1022500047902320A8001385879005482320050177
:10226000138507961308500F232005010CC16165E3
:10227000938787921305156A8C43B39525C099C936
:10228000B9671385479281459387079635A08843A0
:10229000094859BF631BA400370517302905B24010
:1022A000224492440249410182800504F1B703A807
:1022B000070085052B22060103280500E31908FE07
:1022C000E3ECD5FE3969BA841309899283270900A2
:1022D000B3B717FC95E3B967138747801443938717
:1022E000C7800145B32680C114C39843332700C07B
:1022F00098C3E36694FA4DB7E37F94FC0545013932
:102300000504E9B737051730050582803705173012
:102310000D0582803705173021058280411126C2C4
:10232000B96422C406C69387C48098432A849384E0
:102330004491332740C098C3B93E05813354850288
:10234000C167FD179840B357F4043355F502B397AE
:1023500017DC33A717DC98C0B2402244DD679244F3
:1023600023A6A7FA41018280B967138747801443E7
:102370000546B32686C114C31387C78014439387C9
:102380008792B32606C014C39C43B3B717FC639E61
:10239000070E630005108347550089E78347450012
:1023A00063B9770E835745001307F0116383E70E77
:1023B0001307F020638FE70CB967011106CE22CC1A
:1023C00026CA4AC84EC613878790232007000347B2
:1023D0005500834645002A845A07558F93860790F7
:1023E00098C21387C791B14614C3138707959146C6
:1023F00014C313874795232007001387C792232010
:1024000007001387C794232007001387079F232003
:10241000070003478500834675002E890A07AE062C
:10242000558F136717209386479F98C29387879489
:1024300008419C43E535AA8925450D3437550200EE
:10244000A5451305E5D8EFE01F842545EFF0BF9DB6
:10245000F16783A707895D659304C5FAA285130513
:10246000C5FA314682978547A386F40089472386BB
:10247000F400F240624423A8240123A0340142491D
:10248000D244B249014505618280370517300905FC
:10249000828037051730050582800000843A0200EB
:1024A000843A0200843A0200843A0200843A02002C
:1024B000843A0200843A0200843A0200843A02001C
:1024C000843A0200843A0200843A0200843A02000C
:1024D000843A0200843A0200843A0200843A0200FC
:1024E000843A0200843A0200843A0200843A0200EC
:1024F000843A0200843A0200843A0200000000009C
:1025000000000000000000000000000000000000CB
:1025100000000000000000000000000000000000BB
:1025200000000000000000000000000000000000AB
:10253000000000000000000000000000000000009B
:1029F00000000000000000000000000016F18C0440
:102A0000DD6783C7179A638F0720411106C622C46A
:102A100026C24AC01387519683470700054585079C
:102A20002300F700B16783A6075813860758B3261B
:102A300000C023A0D758B96683A58680B325A0C15E
:102A400023A4B68083A58680B325A5C123A4B68020
:102A500003470700333717FC6303071A03A7075818
:102A600055643327C0C623A0E7589307401F23119E
:102A7000F6009307C46A83C7370A1304C46A91CB6C
:102A8000D56783A7871991E78D47A301040A230916
:102A9000F40083C72196D9E383472401B1CFFD1702
:102AA0002309F40083462401094783A76194938492
:102AB00061946364D70881461387060806073E972A
:102AC000231407008506E3B9C6FE9386870123A772
:102AD000D194938607099387871023A9D19423ABB8
:102AE000F19483C761934164B3B717FC95CB8347D7
:102AF00084309DC7EFF06FD2B16703A707588546B2
:102B00004D4533A706C023A0E7582244F167B240E1
:102B10009244024903A3C7BD410102838D4749B7CF
:102B2000EFF00FD513058430EF70705F834784306A
:102B3000E1D783C7E187E9D375BF03C7C7184DDF66
:102B40001387071523A7E1941387871693868710A9
:102B500023A9E19423ABD19403C7D7181388870125
:102B60009387070993161700BA968E060147014608
:102B70001385E194938521953698B6979440837890
:102B8000E850131316009A962390161383F8E75013
:102B90000506239C16138378E850144123D71601A9
:102BA00083F8E750944123D716010907E338C6FCA0
:102BB00083C761934169B3B717FC81C783478930E5
:102BC00095FBEFF0EFCA13058930EF705055984030
:102BD00089468347D71863E5F6008507A306F718EB
:102BE00083478930E38A07F003C7E187E30607F0EC
:102BF00003473401E300F7F0A309F400E5BD03D770
:102C0000619683A607581307C7E093550701B3A63B
:102C1000C5C623A0D758335707102311E600EFB0DD
:102C2000C013D9BD828003271500A567854623AA56
:102C3000E7420357550023ACE7420357750023AE24
:102C4000E74203A7074033A706C423A0E7408280DA
:102C5000A56703A707438346F50033A706C823A843
:102C6000E7420327150023AAE7420357550023AC88
:102C7000E7420357750023AEE7420357950023A2AE
:102C8000E7420327B50023A4E74203A7074033A781
:102C900005C423A0E7408280A5678346050003A7FB
:102CA000074033A746C023A0E740035715008946D5
:102CB00023A2E7420327350023A4E74203A70740E6
:102CC00033A706C423A0E7408280A56703A7074077
:102CD0007D15FD15332705C923A0E74003A707404D
:102CE00033A785C9DD7523A0E740938505BC13870D
:102CF000074493870747B306B7008376D650090782
:102D0000231FD7FEE319F7FE82802567832707403C
:102D10009306F5FF13070747B3A786CC2328F7F8D8
:102D2000814793F6F70F63E3A600828083F6F540B0
:102D300023C7D7008507F5B7A5673707170023A076
:102D4000E74041672D0723A0E7423727000113071B
:102D5000078023A8E74255BFA56703A7074233278B
:102D600085C923A0E7428280411122C406C6B96703
:102D7000054723A0E78A83A7078A03C7B1E33E84F8
:102D800005C3D9679387C77883C7270293F7F70FDF
:102D900063B8370083C7A1E381E70545EFF0AFFAD9
:102DA0007300501083C7B1E391CB83C7A1E399C7E8
:102DB0002244B240014541016FF0EFF8B240224495
:102DC00041018280411106C622C426C24AC0F327AF
:102DD0000030B3B737C0739007303964832744801D
:102DE00085443569B3A794C02322F480832709045E
:102DF0000145B32700C02320F904EFA0D05FB167DD
:102E000003A707488D461305000C33A774C023A001
:102E1000E7482324998003A7874833A7A6C323A4A0
:102E2000E74803274980B71610FFFD16332700D95E
:102E30002322E98003278480332780C02324E48071
:102E40000327848033A784C02324E48003A7874812
:102E50004D641304C40D758F23A4E7488327040C25
:102E6000B3A7F4C02320F40CEF00900B93070003EA
:102E70001CC45C4451772907F98F5CC41C448D4500
:102E80000145B32740C21CC4EF00F0099307600658
:102E90003CC013050004EF00B0081305800D232C7F
:102EA000040CEF00F0078327C4191305C019B327DA
:102EB00080C0232EF418EF00B006B7E77B0093879D
:102EC00007D25CD013054002EF009005B5670D47AF
:102ED00023A4E7801305401FEFF02FEC3167930721
:102EE00000602322F740B96723A80788FD5623AE68
:102EF000D788854623A0D78A83A7078A83270740D8
:102F0000B3A706C02320F740B240224492440249AE
:102F100041018280556541111305851706C6EFA052
:102F2000301E238B01CAA38B01CAFD57A383F1185E
:102F30002383F11823840118A3840118EF00706F14
:102F4000EF80104BEFC082725165614681451305D9
:102F50000554EF708FFCEF90C051B24041016FA05B
:102F60007261B3C7A500B3B727FA3307C50081E77D
:102F70008D4763EDC700AA876367E50082808BC633
:102F80001500AB80D700E3ECE7FE8280B33725FA6B
:102F9000ADEBAA87B33607C2138606FE63F9C706F0
:102FA00083A3050083A2450083AF850003AFC5005E
:102FB00083AE050103AE450103A3850183A8C501C6
:102FC000938545029387470203A8C5FF23AE77FC8C
:102FD00023A057FE23A2F7FF23A4E7FF23A6D7FFD2
:102FE00023A8C7FF23AA67FE23AC17FF23AE07FF62
:102FF00075B78BC61500AB80D700B3B627FAF5FAC4
:1030000051BFAA87DDBF0BA645002BA2C700E3EC8A
:10301000D7FEE3EAE7F68280B16703A707583327B4
:1030200000C023A0E758828041678327C72E9146BE
:1030300063EBF600939627001306C72EB29685071A
:10304000C8C22326F72E8280411106C6F32700301E
:10305000B3B737C073900730C13F01A00547238540
:10306000E1968280411122C483C6619806C6138707
:10307000A19603466700B74706008E069387C7CF21
:10308000B697B29783C75700B7760200938686A695
:10309000A300F7008E073386D70083F7D750D96691
:1030A0002312F7005C421CC783C7567893F7F70FCB
:1030B00091CB230007002244B240A382067841014D
:1030C0006F10C0261384A196231104008357240097
:1030D0000357440063F5E700034704000DC3EF7096
:1030E000D054EF90923A11C5EF90323819C1EF9059
:1030F000923523000400B2402244410182801844EA
:103100008A078377F72091C3829783572400850726
:103110002311F40065BF21C9B9C503D72500854730
:1031200063F3E70403D705008D4763FEE70288C514
:103130002A87814783D62500FD1663CDD70023203B
:10314000070083D72500C8C5239305002392F50007
:103150000545828083D605008507B3D70710BA9648
:1031600014C33687C1BF41113705002006C66D3D27
:10317000B240014541018280AA8648459DCE03D7D1
:10318000460005CF1C4103D626007D173357071094
:10319000DCC689672392E600938707713307E64010
:1031A000B307F70203D76600B3D7C702B3D7071038
:1031B000637FF7002393F6008280370500204111DA
:1031C000050506C69535B2400145410182808280E1
:1031D00029C1A1C1835625008357450063FBD7024F
:1031E0001C4563E8F502035705003E863386E64238
:1031F00063F1C502B387F540B3F7E70299EB5C458D
:103200009CC1835745004CC585072312F500054531
:103210008280370500204111090506C63135B240CC
:1032200001454101828019C52320050023220500A4
:10323000232405008280AA87014599CF91CD23A040
:103240000500D84301CB0CC39847CCC305450507FF
:1032500098C782808CC3CDBF828009CDAA870841E0
:1032600011C9184198C319E323A2070098477D1795
:1032700098C7828041113705102006C67533B240C9
:1032800001454101828019C1084582800145828043
:10329000411122C426C206C69387619703C707005F
:1032A000B7740200938684AB3146B306E64283C707
:1032B000170013846197938484AB13974700DC4213
:1032C000BA97DC4391CF03470400A68683471400D6
:1032D000B306E64213974700DC42BA97DC43829775
:1032E0008347C40093F7F70F63BF27082306040042
:1032F000834724003147A685850793F7F70F2301FD
:10330000F400034624008346040083471400B305F9
:10331000D74293964700DC4183F7D750636EF6049B
:103320002301040083471400850793F7F70FA300D8
:10333000F40083471400834604003307D70283F464
:10334000E45063EB9702A3000400B16703A7077082
:10335000332700C023A0E770B96703A7478033274E
:10336000D0C023A2E780EF0070652244B2409244AF
:103370001D4541016F9000422244B24092441D45D8
:1033800041016F90C040B24022449244410182808A
:10339000011122CC26CA4AC84EC652C456C206CE15
:1033A000396983278980854A1D45B327D0C12324E5
:1033B000F98083278980B169B3A7DAC12324F98012
:1033C000EF90403D83A7097013876197314AB32777
:1033D00080C023A0F9708346170083470700B774A5
:1033E0000200138684ABB307FA0283F7C75063FA6F
:1033F000F612138461978346240003470400834731
:1034000014003306EA42139747005C4283F7E75003
:1034100063F0F61003470400938484ABA686B306DA
:10342000EA428347140085451305000813974700B7
:10343000DC42BA9703D627007916EFA0407D832798
:103440004980A686B3A7DAC02322F98083A7097032
:10345000B3A70AC023A0F9700347040083471400F0
:10346000B306EA4213974700DC42BA97DC4391CF98
:1034700003470400A68683471400B306EA42139765
:103480004700DC42BA97DC43829703470400B14609
:1034900026863386E64283471400139747005C4232
:1034A000BA97DC439DC30347040026868347140074
:1034B0003386E642139747005C42BA97DC43A9CBB8
:1034C0008347C40093F7F70FA1E71D45EF90202C29
:1034D000834724003146850793F7F70F2301F40053
:1034E000834624000347040083471400B304E642E4
:1034F00013974700DC4083F7E75063EBF6002301A6
:10350000040083471400850793F7F70FA300F40026
:10351000F2406244D2444249B249224A924A056189
:103520008280A300070083A709701D45B32700C050
:1035300023A0F97083274980B327D0C02322F980C4
:103540006244F240D2444249B249224A924A056159
:103550006F90402403C76198B74706009387C7CF91
:103560000E07BA9703C74700938761972380E70048
:10357000A38007002381070023860700A385070097
:103580008280354793876197B307E54203C7870079
:103590003E97A301B70003C7870005071377F70F0E
:1035A0002384E7008280396783278788B3C757C1A0
:1035B0002324F788828099E101458280411122C449
:1035C0002A841385E1C926C24AC0AE8406C6328960
:1035D0006536AA85014599CD4D651305C50D80C594
:1035E0002A94C0C12396950023AA25011385E1C81A
:1035F00099310545B24022449244024941018280FA
:103600009387E1CA984305E303C70700854633A7BC
:1036100026C02380E700396783278788B3C797C010
:103620002324F7888280333757F4C1466319D700C3
:1036300003C70700854633A726C02380E7008280A2
:10364000797122D44AD01389E1CA8347090005471A
:1036500026D2B32747C0AA8425452300F9002EC6E9
:1036600006D64ECEB289EF90E0122D45EF90801233
:10367000832709001384E1CAB245B3B747F681CB6B
:10368000396783278792B3B717FCE3AC17FECD6782
:103690009387C70D939625003386F4001307803E69
:1036A000A685054563B31906EF9050518347040082
:1036B000933415002545B32740C02300F400EF9054
:1036C000000D2D45EF90A00C1C4085CBB96703A7DA
:1036D0004788331797C015E303A747889316470118
:1036E00063CD0600034704009376470095C203A705
:1036F0008788334797C023A4E788B2502254268591
:1037000002599254F24945618280EF90B02079BF0E
:10371000333717FC7DD303A787883347B7C0E1BF92
:103720000146854531BF014621BF411122C483C7EF
:10373000E1CA06C626C213F7070145E313F747009F
:103740001384E1CA15CFB32720C00547B32737C07C
:103750002300F4001385E1C83D360DCD1385E1C883
:10376000ED3C23A1A19A35C98356C500224450419E
:103770000C45B24092448A06054541016F901035D0
:103780009384219A8C40F9D51385E1C9913423A003
:103790000400C9B783470400138521C8B32730C08C
:1037A0002300F400CD3415C9834704000547138571
:1037B00021C8B32717C02300F400453423AFA198D4
:1037C00009CD8356C500224450410C45B240924475
:1037D0008A06054541016F90B057B2402244924499
:1037E00041018280894763EED70801114EC6AA893C
:1037F0001385E1C906CE22CC26CA3684B2844AC8D3
:103800002E89EFF07F979387619703C7170083C7CF
:103810002700232435012308E500A308F50023220F
:10382000250123169500A307850023090500AA8515
:10383000138521C809349387E1CA984315E703C764
:103840000700854633A706C02380E7003967832732
:103850008788B3C7B7C02324F788F2406244D244B4
:103860004249B2490561828003C70700C146333629
:1038700057F4E314D6FE854633A706C02380E7003D
:10388000E9BF8280AA8541111385619A06C6EFF0CF
:103890009F9A9387419903C7070011EF03C7319996
:1038A00019EB05472380E700396783278788B3C76B
:1038B000C7C02324F788B24041018280411122C44D
:1038C000B967094706C626C223ACE73283C7E1CAF7
:1038D00013F707015DEB33B717FC1384E1CA29CB5B
:1038E000B32700C00547B32717C02300F400138592
:1038F000E1C8EFF05F9929C58347040005471385A8
:10390000E1C8B32710C0B32737C02300F400EFF09D
:10391000DF9423A1A19A35C98356C50022445041A2
:103920000C45B24092448A06054541016F90101A39
:103930009384E199884045DDB13723A0040045BF59
:10394000138521C8EFF03F94834704001DC9054744
:10395000B32730C0B32717C0138521C82300F40054
:10396000EFF0BF8F23AFA1980DC18356C50022444D
:1039700050410C45B24092448A06054541016F9082
:10398000303DB32710C02300F400B24022449244DB
:1039900041018280411122C4A56706C603A7874062
:1039A000854633A786C023A4E74003A707403327F3
:1039B00000C423A0E74003A761991384619911C350
:1039C0000297F3270030B3B737C073900730314503
:1039D000EF80F05B03C721999387219901EBB966CA
:1039E00003A786883347C7C023A4E688A389019824
:1039F000238007000D4723200400238AE198F32742
:103A00000030B3C737C073900730B2402244410141
:103A1000828001114AC84EC69389A1C983C7390063
:103A2000354722CC3387E70226CA06CE93876197B3
:103A3000B7740200938684AB1389A1C9138461977C
:103A4000938484AB83F7E7403147B386E74283C76B
:103A5000190013974700DC42BA97DC47829783C767
:103A60003199238009008DC33145EF80B052B96789
:103A700003A747889316A70003A7878863D2060485
:103A8000334767C123A4E788834739003547B387A5
:103A9000E7023307F400834687000374F440B1471C
:103AA000B304F44283D7240063E5F6008547230579
:103AB000F700F2406244D2444249B2490561828033
:103AC000334757C1C1B7011122CCA56706CE26CA1C
:103AD0004AC84EC603A78740854633A786C023A49D
:103AE000E74003A70740332700C423A0E74083C76C
:103AF00041991384419963BA370A213F9387619AA8
:103B00009C47E9CB89472300F40083C73199D9E763
:103B10001385619AEFF06FF403C76197B7740200E1
:103B2000938484ABB149A686B386E94283470501F5
:103B30001389A19992072320A900D8423E971847DC
:103B400031CF03C76197A686B386E942D842BA97B8
:103B50009C47829783C7619703270900B384F94282
:103B60008345070193964500DC40B697DC479DC727
:103B700003462701034717019387A1C98546238080
:103B8000D700A381C700A380B7002381E700138477
:103B90006197B5473304F642A305D400F24062446E
:103BA000D2444249B24905618280E3A917F4938463
:103BB000A1998C4099C91385E1C9EFF06FE183C7E2
:103BC000A1C923A004009DDB0DBF37054020EFF005
:103BD000AFC72DB723000400D1B7411106C6EF00CF
:103BE000E074EF70C029EF60B0393525EFB0E26DB9
:103BF000EF70A052EFF00FC7EDB7D56783C78722EC
:103C0000918BC1CBDD6783D5E7A3011126CA860559
:103C1000DD0589818A054EC69387611C06CE22CCBC
:103C20004AC852C4B3D50510239DB700D56783C7D2
:103C300017159389611C918BB1E737060200014586
:103C4000EF20431B01CD85472383F11CF2406244E2
:103C5000D2444249B249224A056182802383011C31
:103C6000F5B783D5A901528622853306B442EF20E9
:103C700063186DD505041374F40F83471900E362CC
:103C8000F4FED1B75569014413094935370A0200DA
:103C9000EDB78280A96723A007C014410346450001
:103CA000B7057010CD8E6206D18E034655006606AC
:103CB000D18E034665006A06D18E23A6D7C014456F
:103CC000584523A8D7C023AAE7C018498346450111
:103CD0004D8FE206558F83465501E606558F834684
:103CE0006501EA06558F23ACE7C0144D584D23AE4D
:103CF000D7C023A0E7C21851834645023347C7C146
:103D0000E206558F83465502EA06558F23A2E7C285
:103D1000832665020327A50223A4D7C223A6E7C2F0
:103D20000357850363264708914663E9E600632944
:103D300017023745040013053580828093060780FB
:103D4000D1C68566E317D7FE185923A8E7C20347F3
:103D50006503835645033607558F23AAE7C22DA076
:103D6000034715038356250306078A06558F8346A6
:103D70000503558F83464503B206558F8346550389
:103D8000C206558F23A8E7C203578503A96723A05E
:103D9000E7C02967832787C0B39737C0E5DF83274C
:103DA00087C037450400A18385EB13050580828019
:103DB00003572503834645030607C206558F8346EE
:103DC0000503558F83465503D20665BF0347250378
:103DD000835605032A0775B7130545808280411174
:103DE00022C403D6011B06C61384E1F903C7911848
:103DF0008347640083A56119DB87C7001165854689
:103E00000982B3D70710BE959307000A3385E742AE
:103E1000EFF05F9D8347640009476369F7008507FA
:103E20002303F400B24022444101828023030400B2
:103E3000D5BF294681451385E1F96F601F8E411179
:103E400022C49387E1F906C626C24AC083C7470049
:103E50001384E1F991C7516513050554EF80A02241
:103E6000034744008347E4006378F7008347340046
:103E70000347D40063E4E7049D3713859118EF806E
:103E8000A0359387619709472386E700EF805006A6
:103E90009387E1D403D7670083D74700331707D848
:103EA0002391E118B39707D2230204002392F1185B
:103EB000B2402244924402494101828003C771F713
:103EC00039EBB1CB03C721F8938721F883C71700DB
:103ED000637BF70E03C7A1F983C7D1F96395E700A8
:103EE0008507238DF1F883C7A1F903A5E1F78607BC
:103EF0000375F550EF90F247938521D40545EF8087
:103F00002038894513054020EFF0FF8183C7A1F9D0
:103F10008507238DF1F883A7A1CB829783473400CF
:103F2000138581188507A301F400EF80E02A03C5FB
:103F30008118EF80602B83C771F795E783C721F85D
:103F4000850793F7F70F2381F1F8138721F80347CB
:103F5000170063FAE70013858118EF80E02703C597
:103F60008118EF80202D8345340005458E0593850B
:103F70002509A295EF8060698347440005478507BE
:103F800093F7F70F2302F400E374F7F2893D1385EA
:103F90009118EF80602483C771F7E39B07F003C794
:103FA00021F8938721F883C717008507E3C2E7F05C
:103FB000EFB03212138591182244B2409244024964
:103FC00041016F806021E318F7F4CD679387C70D37
:103FD00003A7072213050022332700C523A0E722E9
:103FE000EFF00FF40DBF83C771F7011126CA4AC85D
:103FF00006CE22CC4EC6A9E383C781F795CF93871F
:1040000021F883C6670003C7D1F96315D7000507F8
:104010002383E700EFB012018547238EF1F883C7B1
:1040200081F7F240624493C71700238CF1F64249AE
:10403000D244B2490561828083C761181384E1F9D3
:1040400063AE470403C5B1189385E1CEEFE0DFCE40
:10405000A56703A707430345A4008545332700C888
:1040600023A8E74203A70743332785C823A8E742CD
:1040700003266401EFE07FC555671307C716834722
:10408000170003450700B39757C28E07331555C471
:104090003E95EFE07FCC91472383F118834754008E
:1040A0000348A4008DEF03471400335608108346DD
:1040B000B4003307E602B305E6002314E400B3D5E9
:1040C000051063F6B60001C7918E2314D400035780
:1040D000840083D6211B5B07D7002314E40083D51B
:1040E000011B0345740003D6C11A938621175B1682
:1040F000B500A387F600850793F7F70FA302F40036
:104100003A85A390C60063970705A56703A60740F5
:104110008D4513852117332670C023A0C7408357D0
:10412000840003D6E11AB297A395F600EFE05FB2E0
:1041300083471400A30204008507A300F40083470B
:1041400074000947636EF7028507A303F400238E0A
:1041500001F8F1B5854663FFF600A56703A70740A0
:10416000332770C023A0E740854513852117EFE072
:104170003FAEF1B7A56703A7074033A776C0DDB709
:10418000A3030400E9B783C7C1F963B417006F70D4
:1041900070329387E1F903C7170083C7C7006366CE
:1041A000F700814501456FF0CFBD8280411106C601
:1041B000EF80402CB24041016F90F007411106C6DC
:1041C000EF90D001EF80002D03A561D8EF80E0369D
:1041D000EF808034FD557D55EF70A023EF80403097
:1041E000A5451305C020EFF00FD4B240A545130537
:1041F000401A41016FF02FD3411106C6EF80F2281B
:1042000001E9396783278788B3C767C02324F78804
:10421000B2404101828003C76198D9679387C7780C
:10422000060703F7E750D44F3697D8CFD44F6167CE
:104230001307F769637CD70005472380E702D84F4F
:10424000A176938606963697D8CF82802380070280
:10425000828059661306C6788345360283C7619803
:1042600086070376F6502A96711601456F90301A2C
:10427000D9679387877803C707001377F70F01C7BC
:10428000238007008280B16783A7C768D9EF03C77F
:104290006198D9679386C778060736970357E70072
:1042A0009387C7781377F70F2381E60203C7360297
:1042B0001377F70F633417002381070203C7270220
:1042C0001377F70F19E36F80B03F03C72702137707
:1042D000F70F633417006F80304903C72702137745
:1042E000F70F633427006F80F04F03C7270213775F
:1042F000F70F633437006F80905203C7270213779C
:10430000F70F633447006F80F05303C7270213771A
:10431000F70F633457006F80705583C7270293F7F8
:10432000F70F63B467006FE0FFA98280D9679387B6
:10433000C77803C717021377F70F19CBB96603A71E
:104340008688334767C023A4E688A380070282805B
:10435000411106C6EF80721309E9193F39678327B7
:104360008788B3C767C02324F788B24041018280A1
:1043700083C7B1E3411106C622C426C24AC099C709
:1043800083C7A1E381C70145EFE0EF9BB96703A7AE
:10439000878085463327C0C123A4E78003A7878091
:1043A00033A7C6C123A4E78003C66198D967938663
:1043B000C778060603F6C65003C761989387C77887
:1043C000060736970357E7001377F70F2381E602B6
:1043D00003C736021377F70F01EB03C727021377E2
:1043E000F70F25E3130646F283C537020145B9648A
:1043F000EF90F00183A7448005491945B327C9C050
:1044000023A2F480B16703A70768332709C023A05C
:10441000E768EF802038D9679387777803C707006C
:104420001377F70F29C3138761972305270123808B
:1044300007002244B24092440249194541016F806D
:10444000003503C727021377F70F633517001306EC
:1044500046ED59BF03C727021377F70FE33637F846
:10446000130626D151B7EFE0FFAAEFF0AF8ED96760
:104470002383277903C76198B74706009387C7CF7F
:104480000E07BA9783C7470099CB93876197238517
:10449000070083A78488B3C777C023A4F488B240F9
:1044A000224492440249410182806366B5000D8D29
:1044B0001375F50F828001458280411106C622C422
:1044C00026C24AC0AE8483C7040083C515002A846F
:1044D00003451500BE958347040093F5F50F3E95FF
:1044E0001375F50FEFC08FBC83C7240083C534005C
:1044F0002A8903453400BE958347240093F5F50FC0
:104500003E951375F50FEFC06FBA3355051033059F
:10451000A502B24022449244330529430249410195
:104520003355051082800348250083475500034E0C
:10453000350042873387F5428328850003136500E1
:104540003357071063730E0182809317170003F52A
:10455000F810B307C700860783F7F8108587B3C73D
:10456000A704014563C66700B387674033C50710DA
:104570009C42050733570710B307A8420508137874
:10458000F80F9CC2DC42B387A542DCC29C46AA97C6
:104590009CC64DBF83475500034805002E87034E38
:1045A00015003307F8428328850003136500B3DE46
:1045B00007103357071063730E018280931717009B
:1045C00003F5F810B307C700860783F7F81085874F
:1045D000B3C7A704014563C66700B387674033C507
:1045E00007109C42769733570710B387A5429CC2A9
:1045F000DC42B307A84205081378F80FDCC29C46DA
:10460000AA979CC64DBF797122D406D626D24AD02D
:104610004ECE52CC56CA03492500834455008345EB
:104620000500CA87B3D80410B38715438349350002
:10463000034A1500834A4500032E850003136500D5
:104640002A8402C202C402C6B3D707102E87637C35
:10465000EA0E89C9FD15540033E6041093F5F50FF1
:104660002285D135FD1A635D5A01330690409305CA
:104670001A0054003366061093F5F50F2285653550
:10468000630A09009305F9FF5400054693F5F50FF9
:1046900022850937FD1463DA9900938519005400C7
:1046A0007D5693F5F50F2285F5351247A247B246A0
:1046B0002607A6073347D7021306D00FB3C7D70282
:1046C0001307071095863357071093870710B3D742
:1046D0000710635DD6069306F00F36C62317F40065
:1046E000B2472316E4002318F400B2502254925427
:1046F0000259F249624AD24A456182801316150076
:104700000376CE10014863466600330666403348A0
:1047100006101246050533550510338606438506F7
:1047200093F6F60F32C222463306074332C43246AE
:10473000429632C6E3F4D9FCC6970507B3D70710F3
:104740001377F70F29B7CA863E85EDB7850671B78F
:10475000FAE9040006EA040012EA04001EEA040072
:1047600034EA04002AEA040086F60400C8F60400CD
:10477000F6F604001CF70400B0F60400C0F60400CE
:10478000EEF6040080008000800080005A805A000D
:104790005A805A00305A7680765A30001830475A7C
:1047A0006A767D80474553540000000000010104F3
:1047B00000000000393931365200000000800281CB
:1047C00000000000940101000C0D0100F413010031
:1047D000341A01001836010070450100D0A3010011
:1047E000FDFFFFFF01000100FDFF0100FFFFFFFFD4
:1047F000A2FD73026AFE2302B2FEAC01FF034C026B
:104800001F02170038FD7202DB012BFF7B03D10171
:1048100005FFA7FD000000000100FEFF01000100F0
:1048200001000000010001000100FFFFDE008BFF1E
:1048300010FCCE026FFCDEFDCBFDB4FCAE0100002F
:10484000FA02BE0148FD3903250310FDEA01FF030A
:104850003602E2FDF4011FFFF1020EFF45FE25FEC8
:1048600042FEC302FC020000010000000100FCFF48
:1048700001000100010001000100000012032D03EE
:1048800000FE82FFB4017700FF0381FE7D03EE038B
:104890009301D3019BFEFAFDD5FDF80278FC0000E0
:1048A000010003000100FFFF0100FFFF0000000006
:1048B0005C0023FFD8FF73FFAAFFCDFF6200510009
:1048C000C0FF89FF010000000100000048FE5F02F8
:1048D000F2010802D403F600A7FF5103F8FDFF031D
:1048E000A9FD50023B0328FD77FE5E02430301FE53
:1048F000A7FE43FF010102020102010102010201C0
:104900000201010101000201010201010202000095
:104910000000000002010202020000000202020187
:104920000200010201010101020000000101020177
:104930000102010101020102010202020201010061
:104940000100000002010202020202000101020253
:104950000101010201010101020202010200000045
:104960000202020102010000000000000201000139
:104970000100020201010000020102000201010126
:104980000101000102010201010202010102020211
:10499000190B0805000000002F2B27231B00000027
:1049A0007A0089009800A700AF000000B0C502009F
:1049B0002A29050000000000C42A0500EE2B05008E
:1049C000BE3205001485050024780500FA1F050095
:1049D000E68305007481050038EA0400CE790300FF
:1049E0000A6E05001ECC020004D4050092240500C6
:1049F000BC100500A2C905000C0C050036D405004A
:104A0000222A050026A3030032D60500E879030018
:104A10009C020300EE05030078D705008ADA050042
:104A20004A170300EA6F0300940E03006C1803009A
:104A30003C1603003C7005004E1C0300F07105009D
:104A4000040E03007E710300D4190300D477030021
:104A500038760300206C0300908703009E770300E4
:104A60003AD40500C61E030000000000EC6C0300F1
:104A700096EA0400B0C502002A290500C42A0500F0
:104A8000EE2B0500BE3205001485050024780500D4
:104A9000FA1F0500E683050074810500CE79030046
:104AA0000A6E05001ECC020004D405009224050005
:104AB0002C610200A2C9050036D4050026A303001C
:104AC00032D60500E87903009C020300EE050300DE
:104AD00078D705008ADA05004A1703006C1803002E
:104AE0003C1603004E1C0300040E03007E710300FD
:104AF000D4190300D4770300387603003AD40500B4
:104B0000206C030090870300C61E03000000000015
:104B100038EA0400183E05009EFB0200B0C5020002
:104B2000FAD30200F85F0200B0C50200C42A0500F3
:104B3000EE2B0500BE320500148505002478050023
:104B4000FA1F05001ECC020092240500BC100500CF
:104B5000BE84050038EA0400CE79030004D40500C1
:104B6000A2C905000C0C0500222A0500E879030003
:104B700026A3030078D705004A170300940E03000C
:104B80006C1803003C160300F0710500040E0300CE
:104B90007E710300D419030038760300206C0300F3
:104BA000908703009E770300C61E0300EC6C030091
:104BB00096EA0400B0C502002A2905002C61020013
:104BC0002C6102002C6102002C6102002C610200A9
:104BD00001003C00D4DA020024160500B4DA020019
:104BE00001001400A2DB0200000000000000000031
:104BF0000100F4013E5C0200E65D0200865F0200F7
:104C000003000000000000000000000084D2020049
:104C100001003C00D4DA020024160500B4DA0200D8
:104C200001001400A2DB02000000000000000000F0
:104C30000100F4013E5C0200E65D0200865F0200B6
:104C400003000000000000000000000084D2020009
:104C5000010064007A14050076150500F8150500BA
:104C6000040000002E08030000000000C4690200D8
:104C700032000000AC6702002A00000074680200E5
:104C800001000000C0690200230000002869020042
:104C900001000000C469020001000000C8690200B0
:104CA00003000000B4690200030000001C69020058
:104CB00001000000CC69020000000000686A0200E8
:104CC000686A020003000200D0690200006A020064
:104CD00003000200106A0200406A020001000100A5
:104CE000506A0200606A0200443200009BF27911AF
:104CF000710EC1E5A434E2F0E7FF691BCDEF3A0580
:104D0000280163F648F5070EABFD45F49F04D1007A
:104D100081FE14FCC6FAB3FF55068E009DFCFAFC1A
:104D2000E1020B031F04440021FF780E99FCD7FE1B
:104D3000A603B4FFA1028301FEFD45FD850035FBFE
:104D4000C7FA73FE5904E8024204C2FF2F005B0E4B
:104D5000F7FD18FF5C031702E0FDF4FB6BFA460059
:104D60009106CBFF14FC55FD9D028E047201B8F52F
:104D700006F6BF0E97FA3BF56B031501B3F5750FF9
:104D8000A50CB8E8852AB6F4FBFC911CF5ED68EC9F
:104D90005DFA63FCAB0385FAE7007D00CFFF54F5B5
:104DA0001A078A097C02C6FC86FB4FFCB1012F0A58
:104DB0004E012AF4FFFDC4FE0B032DFF7803A7006C
:104DC000BF0079F391FFF8FE5A012201CDF87F0070
:104DD0007EFF98FE32FA05FE1202B100C6F9D9F242
:104DE00097FCE301B6039101A8FFA8FED701990043
:104DF0005EF990005EFF6EFE14FD22F4F8FD36FFB2
:104E00006801FCFF3301370011FF8BF6D107F80969
:104E1000630266FC13FB5AFDFD02E807CC0383EE38
:104E200025F571FF8903E9F8FD030903080018F06F
:104E3000E6FFE9007100D3001C003C00B800B70099
:104E4000D3FF2C0035007F00ECFF930041008C0065
:104E50005000F1FFF0FFFFFFB3FF7AFFE0FF5A00C1
:104E600054000500E1FF150026FFC7FF4CFFBAFF05
:104E7000FCFFA200E5FFDEFF4800FDFFEFFF0B0097
:104E8000ECFFEFFF0800E3FF8CFF0C00D6004800AA
:104E90009E003A00120066FF0600EFFF620021004C
:104EA000210083002500AAFFB9FFDCFF2400FBFFDF
:104EB00098FF47FF220078FFAAFF91FFC9FF180063
:104EC000B1FF6EFF54FF45FFDBFF73FF3FFF47FF5E
:104ED000E7FF4AFF8FFE0000000000000000000016
:104EE00000000000000000000000000000000000C2
:104EF0000000000000000000000000000000A6F21A
:104F0000D3F42AF6940B22F711F5E0EC0000000030
:104F1000E9F64BFB5B028E1616018FFC16F70000BC
:104F200000009C09C5FA2602C707A001C7F6AE0912
:104F300000000000C7FBB4FC920082174600E4FBAF
:104F4000F0F50000000014EFA7F523F5AA0C22F5F8
:104F500061F661EE000000000000000000000000AB
:104F60000000000000000000000000000000000041
:104F70000000000000000000000000000000000031
:104F80000000000000000000000000000000B80762
:104F90004B0803078CFF3F067B0A7E080000B8071A
:104FA0003B03AE0453FF1AF2A5FF3C0672037E08D2
:104FB00094FECBFEDBFC3CFD2CF710FD0BFF7DFDD2
:104FC000FFFB24F68E0D68FF95FFAEF9A6FF19FFD3
:104FD000980EDEF29CF802FED5FDD5FDD0F662FDFE
:104FE0001DFF590253005C083401EB046FFF81F28E
:104FF00062FE16036704120800005C0896070009A9
:105000001BFF1A0BD109120800000000000000006D
:105010000000000000000000000000000000000090
:105020000000000000000000000000000000000080
:1050300095FF0601DE00F0FFF8008F015602000028
:10504000BEFFFB004C00EAFF87FF7E00ACFFD3FEF3
:1050500043FE3D018E007FFFAAFFAFFF36001B001D
:10506000A8FF06013C0154FFB1FF1600F9FF020042
:10507000FFFFBFFF89FE8CFF4400A20029003F0014
:10508000DBFF6EFF97FFA6FFF7FFB0005100C7FFE1
:105090006F0071FFF5FF4CFFF7FD0000190075FF71
:1050A0001FFF050012FF27FFA6FD00000000000003
:1050B0000000000000000000000000000000FBFFF6
:1050C000CAFE00005232CA0818EC050060ED050067
:1050D00070ED050080ED050026EC050090ED050063
:1050E000D6F7050016F805004EF8050084F805000F
:1050F00058F9050094F90500CAF905000000000000
:10510000000000000000000000000000000000009F
:10511000000000000000000000000000000000008F
:10512000000000000000000000000000000000007F
:10513000000000000000000000000000000000006F
:1059F0000000000000000000000000005BA64D0752
:105A0000D56783C7171555678D8393C71700B3B73D
:105A100017FC230FF76082804111794506C6EF30ED
:105A20001055014681451305000CEF409253B240DA
:105A300041016F508231834715001307500A93F7D5
:105A4000F70F6387E764397122DC06DE26DA4AD86D
:105A50004ED652D456D25AD05ECE2A84636DF710F9
:105A600013071009638EE72A636BF7061307000319
:105A70006387E75E6363F704130760026386E75892
:105A8000130770026386E758834714001307000763
:105A900093F7F70FE385E73EE36EF70EE3A1973048
:105AA0002547E368F7068D44E3EFF4024167E3829C
:105AB0000726238F01866F00302613073007638582
:105AC000E72C13070009E391E7FC03452500EF20CD
:105AD000C256C167130700F8238AE71651A01307BF
:105AE000F0096383E72C6363F70613077009638982
:105AF000E7321307D009E399E7F883472500556794
:105B00008346871393F7F70F63FCD70413078713B4
:105B10008607BA9783D617000347B700D96723963D
:105B2000D778333717FC09C79387C7782392D700F4
:105B3000B7A7070093870712B3C7D7025567860731
:105B40002319F76ADD672392D7A619A81307100A4D
:105B5000638EE7201307200AE398E7F2EF50721EE6
:105B6000F2506254D2544259B259225A925A025BAC
:105B7000F24B216182801307800B6381E754636FCE
:105B8000F7101307800A638AE71C636CF708130792
:105B9000600A6383E72C1307700AE397E7EED56486
:105BA0005D644946938581EA130444991385441C36
:105BB000A3090414EF40805BEF502267B765020031
:105BC000416535469385455B1305E501EF00BFA8A8
:105BD0004169E94513054901EF003FB71309490140
:105BE000231DA90003A5E14C1306800F8145EF405A
:105BF000A058EF40801693876198D8439384441C43
:105C00003347D7C0D8C323880196130700F8C1676C
:105C1000238AE716EF30627183D734002318F40C1F
:105C200081B71307E00AE38DE7F21307F00AE39D5B
:105C3000E7E4034725005D661377F70F938761F26A
:105C4000D566D565633B1744230AE69855662383DA
:105C5000E1F21307C61E0347A7001305F00F130652
:105C6000C61E0607A391E70003C7A65D931627008B
:105C7000BA9686066347D500A9465B07D700A3837B
:105C8000E7008346760003C7955D1306F00FB30562
:105C9000D702E340B6E45B07D700B1A21307100CAC
:105CA0006386E754636CF7041307F00B638BE74ECE
:105CB0001307000CE39AE7DC834625005D64556713
:105CC00093F6F60F13044499938761981307471CC2
:105CD0006387064E0357C7002318E40C0547A30B40
:105CE000E400D843334737C1D8C3EF50530BA30D5B
:105CF0000400A30A0400A30C04009DB51307200CA4
:105D00006387E7581307300CE390E7D883472500F3
:105D1000596793F7F70FB337F0002303F76655BBC6
:105D20008346250083C7619393F6F60F95C2054617
:105D3000B32776C0238BF192B3E6061063D7060033
:105D4000B32706C0238BF19269B3B32700C0DDBF30
:105D5000B32700C0B32770C0F5B7D56783C78722C4
:105D6000998BE38F07DEEFC04249DDBB0347250077
:105D700083473500A207BA97B3D70710E38207DE3F
:105D80005D67A31BF79CE9BB0347250083473500EC
:105D9000A207BA97B3D70710E38407DC5967130744
:105DA000C7782312F7006DBB8347250093F7F70FE1
:105DB00063B9170093876198D843334787C0D8C326
:105DC00009BB8347250093F7F70F63B12702938739
:105DD0006198D843334797C0D8C39387E1E903C795
:105DE000A700332720C02385E700E5B183472500BE
:105DF00093F7F70FE39F07CC93876198D843334716
:105E000097C0D8C3D56703C7471C9387E1E983C60A
:105E1000A700331727C0B32627C02385D70055B95D
:105E20008347250093F7F70F63BF170003C721E7E8
:105E3000E31807D21387619850432389F1E633466C
:105E400016C050C331BB93876198D843238901E6BC
:105E5000334727C0D8C329B35D699307499983C7DE
:105E600017001309499989C7A3000900238201EA91
:105E7000EF30223DD56B83C70B2D83462400D964B8
:105E800093C7F7FF1387C44FD58FA30FF7149387DA
:105E90000B2D83C7170083463400D56A93C7F7FFDD
:105EA000D58F2300F71693870A1B83D73700138AF1
:105EB00061982318F90C834739159384C44F93894B
:105EC0000B2D138B0A1B639D070C83274A00054784
:105ED000B3C7C7C02322FA002388E196EF70921A55
:105EE00083C70B2D0347240093C7F7FFD98FA38FD8
:105EF000F41483C719000347340093C7F7FFD98F01
:105F00002380F4168347090281CFD56793878720C2
:105F100003D7A70083D7C7002316E90A2317F90A76
:105F20004946938581EA13850A1BEF402024EF50F0
:105F3000C22F9387E1E903C74700333747C0238265
:105F4000E70083D789011307800C6374F70A0357AE
:105F50003B009306803E3357D702B3D7E70285074D
:105F6000A392F416D967A38A076A03A5E14C130626
:105F7000800F8145EF404020B765020041653546FE
:105F80009385455A1305E501EF00EFEC41641305D5
:105F90004401E945EF006FFB13044401231DA400F5
:105FA000EF70121683D70901130700F8034539155E
:105FB000A397F41683D78900A398F41683D7A90072
:105FC000A399F41683D7C900A39AF41683D7E900DE
:105FD000A39BF416C167238AE71683274A00B3C739
:105FE00097C02322FA008547A302F900EF208222FE
:105FF00085BE83573B001307803E33D7E7029307E4
:10600000401FB3C7E702A1BF0905EF400068D1B444
:10601000834725001147E36EF7AA5566034725001D
:106020001306863D8355660089473387E74033670B
:10603000071029452E885B18A700DD6693864699D0
:10604000A39B060303472400998F03574600B3E739
:1060500007103A865B96A700A39AC6029DBC03462A
:106060002500DD6793874799D5661376F60F83C5BC
:10607000B7169386863B633A160003C726015B0773
:10608000B7000D87A383E716A9B403C7B600C5BF41
:10609000DD672D47A383E7A48280238B070023833A
:1060A0000700A38507008547A38CF55C238DF65C6C
:1060B000D567230A069823AE075C21BC83472500D9
:1060C00093F7F70F85E755671307474E03463700E9
:1060D0008346470003475700DD67238CE7549387C7
:1060E00087552382C700A382D700E5B283472500E6
:1060F00093F7F70F63BD170055671307474E034625
:10610000F70083460701DD670347E700F9B78347D8
:10611000250093F7F70F63BD270055671307474E18
:106120000346270183463701DD670347170175B72B
:106130008347250093F7F70F63BD370055671307B3
:10614000474E0346570183466701DD670347470112
:1061500069B78347250093F7F70FE3BC479683475A
:10616000350093F7F70FE38607968347450093F7CB
:10617000F70FE38007968347550093F7F70FE38AFD
:106180000794034635008346450003475500DD6705
:10619000238CC754938787552382D700A382E700B7
:1061A0000DBA8347250093F7F70FE3BB179AB9673A
:1061B00003A78780332700C023A4E78055B2035785
:1061C0003700A30B04002318E40CD843334747C11E
:1061D000D8C3D56783C7C756B3B717FCA30DF40060
:1061E0008547A30AF400A30CF4009DBA55698347C0
:1061F000491A898BE38F078C03A5619413066019F4
:106200008145EF008FD183472400DD649384449956
:1062100093F7F70FA5CB034724001377F70F6335E8
:1062200017048356591A37470F00130707243347BB
:10623000D7022393E19683D661961307703E636677
:10624000D7001307803E2393E196EF30E2018547A4
:10625000238AF40003C744012382E19603C7140B89
:106260002381E1966FF0FF86034724001309491A42
:106270001377F70F63352700835639006DB78356C0
:10628000590055B7EF805FD9238A0400E1B78346F0
:106290002500DD67556793F6F60F93874799130737
:1062A000471C91CE0357A7008546A380D7002398AB
:1062B000E70CA38C0700A38D07006FF09F810357A5
:1062C0003700A38007002398E70C0547A38CE7005D
:1062D00055670347C756238201EA333717FCA38D5E
:1062E000E7006FF00FFF63AF472263A9772883476A
:1062F00014001307200E93F7F70F6384E7426366D9
:10630000F740130700066380E744834714006FF0EB
:106310003F854147638BE72E6363F70463AEA72A8B
:10632000E3B7D7FC4965A14745468145416413055C
:106330004507230AF416EF3030640A86B945130581
:10634000007DEF200202630E052AEF4072450A86A7
:10635000BD451305007DEF20C2006FF07F806147CF
:106360006386E7307D476385E7005D47E391E7F8A3
:10637000DD67054793874799A380E7005567035773
:10638000E71C2398E70C835524000A85EF10B260C0
:106390006FF02FF41307A0096384E7FC636EF70A1C
:1063A00013073008638DE726636BF70013071007A8
:1063B000638EE72C13072008638DE7F00DBF1307EA
:1063C0004008639DE7004164930400F87945230A7F
:1063D0009416EF30C039EF80FF9ECDBF13075008F1
:1063E000E397E7F00145EF301001F3270030B3B732
:1063F00037C0739007308569374A02001944938A81
:10640000098013090A80416B930B00F8F16483A79C
:106410008489B7450C005686938505804A85829706
:1064200083A7C48A9385E9FF4A858297B7570200FC
:1064300083A7C77F631AF500B967230A7B1723A8D0
:10644000278393070A8882977D141374F40F5DFCE9
:10645000C1670D476FF04FE81307900A6382E7F0BA
:10646000636DF7041307B009638AE71C1307C009BB
:10647000E39FE7E6D56713874735834624008347C4
:10648000170063F8F6E4D9679387476B83C6170054
:106490000546B32626C0A380D7008347240086077D
:1064A000BA9703D52700EF50B23BDD67238B0798DF
:1064B0001D45EF1013136FF0CFE11307200B63811D
:1064C000E71A1307D00F638AE71C1307100BE3903A
:1064D000E7E20347240083473400A207BA97B3D703
:1064E00007109386D7CC0967B3D60610130797B861
:1064F000636AD7001387E1D483566700B3A607D831
:106500002313D700DD67938747993547A389E70AA7
:106510001DA28547238FF186930700F8230AF716FB
:106520006FF00FE4EF10F2724164130900F8230AD0
:106530002417EF40430D0A8695451305007DEF10A3
:1065400052620DC1EF10526A1DC5EF107271D9670A
:106550008544238A9772EF109223D567230A241764
:10656000238097620A8699451305007DEF10725FBC
:10657000930700F8B1A8230A9416EDB7EF200202A2
:106580004164930400F80A86A1451305007D230A9F
:106590009416EF10125D230A94166FF06FDC4164BD
:1065A00091470A86AD451305007D230AF416EF10C6
:1065B000525B09C5EF4032086FF08FDA8D470A86CB
:1065C000B1451305007D230AF416EF1092599D473B
:1065D000230AF4166FF0CFD8416491470A86AD457F
:1065E0001305007D230AF416EF10B25709C5EF40DA
:1065F000520C6FF0EFD68D47230AF4160A86B14588
:10660000A5B7B147230AF41699B3EF103271EF1012
:106610001218D56705472380E7626FF08FCB0545D9
:10662000EF10437DDD67938747992D47A389E70ADC
:106630000D47A38EE710238107009DBD034724006B
:10664000D9679387476B1377F70F6336170023815A
:1066500007006FF0EFD005472381E7006FF04FD0C0
:1066600003472400A389E11C6FF08FCFDD67938778
:1066700047995567A38007000357771C19B3034751
:106680002400DD672386E79A6FF0AFC40357240028
:10669000D567239BE76A6FF0AFCC0347240083C71D
:1066A00061931377F70F93F7070215CF639A07CA21
:1066B00083C7619385440545B3A754C0238BF192EA
:1066C000EF10B21783C76193B3A724C0238BF19255
:1066D000C16723800740EF10C276EF20C256EF80DB
:1066E000FF976FF0EFC7638D07C683C76193B3272A
:1066F00050C0B32720C0238BF192C167238007408D
:10670000EF102274EF20A255D9BF1307300E638912
:10671000E7021307E00EE39AE7BE83C7711C6FF030
:106720004FE49387611C03C71700630B07C205473B
:10673000A384E700DD673547A383E7A46FF04FC26A
:10674000A387011CC5BF55679307C71983C64700B8
:10675000A382D70083C637002382D70083C62700D1
:10676000A381D70083C617002381D7008346C719AA
:10677000A380D70083472400230EF7186FF06FB56E
:10678000011122CC416406CE130444278347340010
:1067900093F7F70F89C7F2406244056182801305C1
:1067A0000100EF708FDD7DD10A85EFF0CFA8F9BF32
:1067B000C16703D757199386471983C68602050711
:1067C000A39AE71803C76198938747191377F70FC0
:1067D0006384E6002384E7025D669306469983C5D9
:1067E000560003C767020346469933A705C083C511
:1067F000160033A715C083C5660033A725C083C51F
:10680000860033A735C0332746C003C6660133363A
:10681000C000332756C05566034606202383E7028F
:1068200003C77702332706C003C606133336C000FA
:10683000332716C01386A12F834596000346E60032
